{
  "_format": "hh-sol-artifact-1",
  "contractName": "WavePortal",
  "sourceName": "contracts/WavePortal.sol",
  "abi": [
    {
      "inputs": [],
      "stateMutability": "nonpayable",
      "type": "constructor"
    },
    {
      "inputs": [],
      "name": "getTotalWaves",
      "outputs": [
        {
          "internalType": "uint256",
          "name": "",
          "type": "uint256"
        }
      ],
      "stateMutability": "view",
      "type": "function"
    },
    {
      "inputs": [],
      "name": "wave",
      "outputs": [],
      "stateMutability": "nonpayable",
      "type": "function"
    }
  ],
  "bytecode": "0x608060405234801561001057600080fd5b506100596040518060400160405280601f81526020017f68657265206973206d7920666972737420736d61727420636f6e74726163740081525061005e60201b6101081760201c565b6101e1565b6100fa8160405160240161007291906101bf565b6040516020818303038152906040527f41304fac000000000000000000000000000000000000000000000000000000007bffffffffffffffffffffffffffffffffffffffffffffffffffffffff19166020820180517bffffffffffffffffffffffffffffffffffffffffffffffffffffffff83818316178352505050506100fd60201b60201c565b50565b60008151905060006a636f6e736f6c652e6c6f679050602083016000808483855afa5050505050565b600081519050919050565b600082825260208201905092915050565b60005b83811015610160578082015181840152602081019050610145565b8381111561016f576000848401525b50505050565b6000601f19601f8301169050919050565b600061019182610126565b61019b8185610131565b93506101ab818560208601610142565b6101b481610175565b840191505092915050565b600060208201905081810360008301526101d98184610186565b905092915050565b61054d806101f06000396000f3fe608060405234801561001057600080fd5b50600436106100365760003560e01c80636fe15b441461003b5780639a2cdc0814610045575b600080fd5b610043610063565b005b61004d6100bd565b60405161005a919061031b565b60405180910390f35b60016000808282546100759190610365565b925050819055506100bb6040518060400160405280600c81526020017f2573206861732077617665640000000000000000000000000000000000000000815250336101a1565b565b60006101006040518060400160405280601681526020017f5765206861766520256420746f74616c2077617665730000000000000000000081525060005461023d565b600054905090565b61019e8160405160240161011c9190610454565b6040516020818303038152906040527f41304fac000000000000000000000000000000000000000000000000000000007bffffffffffffffffffffffffffffffffffffffffffffffffffffffff19166020820180517bffffffffffffffffffffffffffffffffffffffffffffffffffffffff83818316178352505050506102d9565b50565b61023982826040516024016101b79291906104b7565b6040516020818303038152906040527f319af333000000000000000000000000000000000000000000000000000000007bffffffffffffffffffffffffffffffffffffffffffffffffffffffff19166020820180517bffffffffffffffffffffffffffffffffffffffffffffffffffffffff83818316178352505050506102d9565b5050565b6102d582826040516024016102539291906104e7565b6040516020818303038152906040527fb60e72cc000000000000000000000000000000000000000000000000000000007bffffffffffffffffffffffffffffffffffffffffffffffffffffffff19166020820180517bffffffffffffffffffffffffffffffffffffffffffffffffffffffff83818316178352505050506102d9565b5050565b60008151905060006a636f6e736f6c652e6c6f679050602083016000808483855afa5050505050565b6000819050919050565b61031581610302565b82525050565b6000602082019050610330600083018461030c565b92915050565b7f4e487b7100000000000000000000000000000000000000000000000000000000600052601160045260246000fd5b600061037082610302565b915061037b83610302565b9250827fffffffffffffffffffffffffffffffffffffffffffffffffffffffffffffffff038211156103b0576103af610336565b5b828201905092915050565b600081519050919050565b600082825260208201905092915050565b60005b838110156103f55780820151818401526020810190506103da565b83811115610404576000848401525b50505050565b6000601f19601f8301169050919050565b6000610426826103bb565b61043081856103c6565b93506104408185602086016103d7565b6104498161040a565b840191505092915050565b6000602082019050818103600083015261046e818461041b565b905092915050565b600073ffffffffffffffffffffffffffffffffffffffff82169050919050565b60006104a182610476565b9050919050565b6104b181610496565b82525050565b600060408201905081810360008301526104d1818561041b565b90506104e060208301846104a8565b9392505050565b60006040820190508181036000830152610501818561041b565b9050610510602083018461030c565b939250505056fea2646970667358221220b7dc9867e592bf1499df0932507e3cfba4224370411fe7c3bdcce3ecff99a35d64736f6c63430008090033",
  "linkReferences": {},
  "deployedLinkReferences": {}
}