{
  "_format": "hh-sol-artifact-1",
  "contractName": "WavePortal",
  "sourceName": "contracts/WavePortal.sol",
  "abi": [
    {
      "inputs": [],
      "stateMutability": "payable",
      "type": "constructor"
    },
    {
      "anonymous": false,
      "inputs": [
        {
          "indexed": true,
          "internalType": "address",
          "name": "from",
          "type": "address"
        },
        {
          "indexed": false,
          "internalType": "uint256",
          "name": "timestamp",
          "type": "uint256"
        },
        {
          "indexed": false,
          "internalType": "string",
          "name": "message",
          "type": "string"
        }
      ],
      "name": "NewWave",
      "type": "event"
    },
    {
      "inputs": [],
      "name": "getAllWaves",
      "outputs": [
        {
          "components": [
            {
              "internalType": "address",
              "name": "waver",
              "type": "address"
            },
            {
              "internalType": "string",
              "name": "message",
              "type": "string"
            },
            {
              "internalType": "uint256",
              "name": "timestamp",
              "type": "uint256"
            }
          ],
          "internalType": "struct WavePortal.Wave[]",
          "name": "",
          "type": "tuple[]"
        }
      ],
      "stateMutability": "view",
      "type": "function"
    },
    {
      "inputs": [],
      "name": "getTotalWaves",
      "outputs": [
        {
          "internalType": "uint256",
          "name": "",
          "type": "uint256"
        }
      ],
      "stateMutability": "view",
      "type": "function"
    },
    {
      "inputs": [
        {
          "internalType": "string",
          "name": "_message",
          "type": "string"
        }
      ],
      "name": "wave",
      "outputs": [],
      "stateMutability": "nonpayable",
      "type": "function"
    }
  ],
  "bytecode": "0x60806040526200004a6040518060400160405280601c81526020017f57617665506f7274616c202d20536d61727420436f6e747261637421000000008152506200005060201b60201c565b6200024a565b620000f081604051602401620000679190620001f7565b6040516020818303038152906040527f41304fac000000000000000000000000000000000000000000000000000000007bffffffffffffffffffffffffffffffffffffffffffffffffffffffff19166020820180517bffffffffffffffffffffffffffffffffffffffffffffffffffffffff8381831617835250505050620000f360201b60201c565b50565b6200011981620001146200011c60201b620004a7176200013d60201b60201c565b60201c565b50565b60006a636f6e736f6c652e6c6f679050600080835160208501845afa505050565b6200015160201b6200062817819050919050565b6200015b6200021b565b565b600081519050919050565b600082825260208201905092915050565b60005b83811015620001995780820151818401526020810190506200017c565b60008484015250505050565b6000601f19601f8301169050919050565b6000620001c3826200015d565b620001cf818562000168565b9350620001e181856020860162000179565b620001ec81620001a5565b840191505092915050565b60006020820190508181036000830152620002138184620001b6565b905092915050565b7f4e487b7100000000000000000000000000000000000000000000000000000000600052605160045260246000fd5b61101a806200025a6000396000f3fe608060405234801561001057600080fd5b50600436106100415760003560e01c8063449d46c0146100465780639a2cdc0814610062578063bd43a90814610080575b600080fd5b610060600480360381019061005b919061078c565b61009e565b005b61006a61030b565b60405161007791906107ee565b60405180910390f35b610088610356565b60405161009591906109ea565b60405180910390f35b60016000808282546100b09190610a3b565b925050819055506100f76040518060400160405280601681526020017f257320776176656420772f206d6573736167652025730000000000000000000081525033836104c8565b600160405180606001604052803373ffffffffffffffffffffffffffffffffffffffff16815260200183815260200142815250908060018154018082558091505060019003906000526020600020906003020160009091909190915060008201518160000160006101000a81548173ffffffffffffffffffffffffffffffffffffffff021916908373ffffffffffffffffffffffffffffffffffffffff16021790555060208201518160010190816101af9190610c7b565b506040820151816002015550503373ffffffffffffffffffffffffffffffffffffffff167f5f7e16dc676677766a70e9c5628aa6c54ddb8b6e5188e2ae1e1f17f1ffbea7164283604051610204929190610d97565b60405180910390a26000655af3107a400090504781111561025a576040517f08c379a000000000000000000000000000000000000000000000000000000000815260040161025190610e39565b60405180910390fd5b60003373ffffffffffffffffffffffffffffffffffffffff168260405161028090610e8a565b60006040518083038185875af1925050503d80600081146102bd576040519150601f19603f3d011682016040523d82523d6000602084013e6102c2565b606091505b5050905080610306576040517f08c379a00000000000000000000000000000000000000000000000000000000081526004016102fd90610f11565b60405180910390fd5b505050565b600061034e6040518060400160405280601781526020017f7765206861766520256420746f74616c20776176657321000000000000000000815250600054610567565b600054905090565b60606001805480602002602001604051908101604052809291908181526020016000905b8282101561049e57838290600052602060002090600302016040518060600160405290816000820160009054906101000a900473ffffffffffffffffffffffffffffffffffffffff1673ffffffffffffffffffffffffffffffffffffffff1673ffffffffffffffffffffffffffffffffffffffff16815260200160018201805461040390610a9e565b80601f016020809104026020016040519081016040528092919081815260200182805461042f90610a9e565b801561047c5780601f106104515761010080835404028352916020019161047c565b820191906000526020600020905b81548152906001019060200180831161045f57829003601f168201915b505050505081526020016002820154815250508152602001906001019061037a565b50505050905090565b60006a636f6e736f6c652e6c6f679050600080835160208501845afa505050565b6105628383836040516024016104e093929190610f40565b6040516020818303038152906040527fe0e9ad4f000000000000000000000000000000000000000000000000000000007bffffffffffffffffffffffffffffffffffffffffffffffffffffffff19166020820180517bffffffffffffffffffffffffffffffffffffffffffffffffffffffff8381831617835250505050610603565b505050565b6105ff828260405160240161057d929190610f85565b6040516020818303038152906040527fb60e72cc000000000000000000000000000000000000000000000000000000007bffffffffffffffffffffffffffffffffffffffffffffffffffffffff19166020820180517bffffffffffffffffffffffffffffffffffffffffffffffffffffffff8381831617835250505050610603565b5050565b61061a816106126104a761061d565b63ffffffff16565b50565b610628819050919050565b610630610fb5565b565b6000604051905090565b600080fd5b600080fd5b600080fd5b600080fd5b6000601f19601f8301169050919050565b7f4e487b7100000000000000000000000000000000000000000000000000000000600052604160045260246000fd5b61069982610650565b810181811067ffffffffffffffff821117156106b8576106b7610661565b5b80604052505050565b60006106cb610632565b90506106d78282610690565b919050565b600067ffffffffffffffff8211156106f7576106f6610661565b5b61070082610650565b9050602081019050919050565b82818337600083830152505050565b600061072f61072a846106dc565b6106c1565b90508281526020810184848401111561074b5761074a61064b565b5b61075684828561070d565b509392505050565b600082601f83011261077357610772610646565b5b813561078384826020860161071c565b91505092915050565b6000602082840312156107a2576107a161063c565b5b600082013567ffffffffffffffff8111156107c0576107bf610641565b5b6107cc8482850161075e565b91505092915050565b6000819050919050565b6107e8816107d5565b82525050565b600060208201905061080360008301846107df565b92915050565b600081519050919050565b600082825260208201905092915050565b6000819050602082019050919050565b600073ffffffffffffffffffffffffffffffffffffffff82169050919050565b600061086082610835565b9050919050565b61087081610855565b82525050565b600081519050919050565b600082825260208201905092915050565b60005b838110156108b0578082015181840152602081019050610895565b60008484015250505050565b60006108c782610876565b6108d18185610881565b93506108e1818560208601610892565b6108ea81610650565b840191505092915050565b6108fe816107d5565b82525050565b600060608301600083015161091c6000860182610867565b506020830151848203602086015261093482826108bc565b915050604083015161094960408601826108f5565b508091505092915050565b60006109608383610904565b905092915050565b6000602082019050919050565b600061098082610809565b61098a8185610814565b93508360208202850161099c85610825565b8060005b858110156109d857848403895281516109b98582610954565b94506109c483610968565b925060208a019950506001810190506109a0565b50829750879550505050505092915050565b60006020820190508181036000830152610a048184610975565b905092915050565b7f4e487b7100000000000000000000000000000000000000000000000000000000600052601160045260246000fd5b6000610a46826107d5565b9150610a51836107d5565b9250828201905080821115610a6957610a68610a0c565b5b92915050565b7f4e487b7100000000000000000000000000000000000000000000000000000000600052602260045260246000fd5b60006002820490506001821680610ab657607f821691505b602082108103610ac957610ac8610a6f565b5b50919050565b60008190508160005260206000209050919050565b60006020601f8301049050919050565b600082821b905092915050565b600060088302610b317fffffffffffffffffffffffffffffffffffffffffffffffffffffffffffffffff82610af4565b610b3b8683610af4565b95508019841693508086168417925050509392505050565b6000819050919050565b6000610b78610b73610b6e846107d5565b610b53565b6107d5565b9050919050565b6000819050919050565b610b9283610b5d565b610ba6610b9e82610b7f565b848454610b01565b825550505050565b600090565b610bbb610bae565b610bc6818484610b89565b505050565b5b81811015610bea57610bdf600082610bb3565b600181019050610bcc565b5050565b601f821115610c2f57610c0081610acf565b610c0984610ae4565b81016020851015610c18578190505b610c2c610c2485610ae4565b830182610bcb565b50505b505050565b600082821c905092915050565b6000610c5260001984600802610c34565b1980831691505092915050565b6000610c6b8383610c41565b9150826002028217905092915050565b610c8482610876565b67ffffffffffffffff811115610c9d57610c9c610661565b5b610ca78254610a9e565b610cb2828285610bee565b600060209050601f831160018114610ce55760008415610cd3578287015190505b610cdd8582610c5f565b865550610d45565b601f198416610cf386610acf565b60005b82811015610d1b57848901518255600182019150602085019450602081019050610cf6565b86831015610d385784890151610d34601f891682610c41565b8355505b6001600288020188555050505b505050505050565b600082825260208201905092915050565b6000610d6982610876565b610d738185610d4d565b9350610d83818560208601610892565b610d8c81610650565b840191505092915050565b6000604082019050610dac60008301856107df565b8181036020830152610dbe8184610d5e565b90509392505050565b7f547279696e6720746f207769746864726177206d6f6e65206d6f6e657920746860008201527f616e2074686520636f6e7472616374206861732e000000000000000000000000602082015250565b6000610e23603483610d4d565b9150610e2e82610dc7565b604082019050919050565b60006020820190508181036000830152610e5281610e16565b9050919050565b600081905092915050565b50565b6000610e74600083610e59565b9150610e7f82610e64565b600082019050919050565b6000610e9582610e67565b9150819050919050565b7f4661696c656420746f207769746864726177206d6f6e65792066726f6d20636f60008201527f6e74726163742e00000000000000000000000000000000000000000000000000602082015250565b6000610efb602783610d4d565b9150610f0682610e9f565b604082019050919050565b60006020820190508181036000830152610f2a81610eee565b9050919050565b610f3a81610855565b82525050565b60006060820190508181036000830152610f5a8186610d5e565b9050610f696020830185610f31565b8181036040830152610f7b8184610d5e565b9050949350505050565b60006040820190508181036000830152610f9f8185610d5e565b9050610fae60208301846107df565b9392505050565b7f4e487b7100000000000000000000000000000000000000000000000000000000600052605160045260246000fdfea264697066735822122062e21532637076c74a27c7a57816d58a3dfc419fe1288b33cdc3f9760680d5c864736f6c63430008130033",
  "linkReferences": {},
  "deployedLinkReferences": {}
}